:1000000009C026C120C01FC01EC01DC01CC01BC00F
:100010006AC019C011241FBECFE9CDBF10E0A0E611
:10002000B0E0E4EEF3E002C005900D92A236B10715
:10003000D9F720E0A2E6B0E001C01D92A636B207D3
:10004000E1F774D1CDC1DCCFA89581B5886181BDC0
:1000500011BC089581B5806581BD81B5806281BD87
:100060000895882349F0A895EFEDFEE23197F1F766
:1000700000C000008150F5CF0895C29A8AE0F1DFF8
:10008000C2988AE0EECFEF92FF920F931F93CF9327
:10009000DF931F92CDB7DD27182FE42E07B397B358
:1000A000916197BBC098C498F12CF11651F0C09A99
:1000B000862F6983D6DFC0988E2DD3DFF3946981B4
:1000C000F4CF07BB0F90DF91CF911F910F91FF905D
:1000D000EF90089543E065E08FE0D5DFC29A84E6B3
:1000E000C0DFC29808951F920F920FB60F9211248D
:1000F0002F933F934F935F936F937F938F939F9330
:10010000AF93BF93EF93FF93909163008091620050
:10011000992321F08F5F8093620019C0853050F0E1
:100120001092620080E090E033D19093650080935C
:100130006400D0DF80916000882349F080916400E2
:100140009091650001979093650080936400FF9102
:10015000EF91BF91AF919F918F917F916F915F913F
:100160004F913F912F910F900FBE0F901F901895B8
:10017000CF9383DF87B3816187BBC098C49A0000A7
:1001800000000000BC98C498C0E020E030E0B49BC0
:100190000BC0A8952115310519F02F5F3F4FF7CF00
:1001A000CF5F21E030E0F3CF82E090E0E9D0282F6C
:1001B00030E02C5F3F4F4C2F50E02417350724F0E0
:1001C00081E08093630003C01092630056DF55DF27
:1001D00054DF8C2FCF910895CBDF682F82E090E021
:1001E000DAC0EF92FF920F931F93CF93DF938C01AE
:1001F00044DF43DF42DF88EC34DFCFE0D0E0EE24A1
:10020000E394F12C97010C2E02C0220F331F0A94A5
:10021000E2F7202331230C2E02C0369527950A944D
:10022000E2F7232B31F029DF42E366E481E02BDFA4
:1002300003C023DF84E615DF219720F71EDF1DDFD3
:100240001CDFDF91CF911F910F91FF90EF9015CFA1
:100250001F920F920FB60F9211242F933F934F933B
:100260005F936F937F938F939F93AF93BF93CF933E
:10027000EF93FF93F89442E364E681E004DFC0E08B
:10028000B1990AC0C530C9F1CF5F4EE16AE08C2F49
:10029000FADE82E3E6DEF4CFC33031F128F4C13078
:1002A00051F0C23091F004C0C43021F1C53029F1C1
:1002B00011DFC0E024C0C093600061E070E080E026
:1002C00090E07BD021E030E00AC081E080936000C4
:1002D00063E070E080E090E070D023E030E03093A5
:1002E0006500209364000BC082E090E049D090E06C
:1002F00078DF05C01092600002C06EDFC5E04FE0FD
:1003000065E08C2FC0DE7894FF91EF91CF91BF9183
:10031000AF919F918F917F916F915F914F913F919D
:100320002F910F900FBE0F901F901895B99AC19AF8
:1003300085B78C7F85BF8BB780648BBFBA9AC29814
:1003400085B7806385BF86DE789480E090E020D01A
:100350000197909365008093640084E682DE08DF55
:100360008091640090916500892B41F4B3DE80E0B8
:1003700090E00ED090936500809364008895EFCF55
:10038000E199FECF1FBA8EBBE09A99278DB30895ED
:10039000A8E142E018C0262FE199FECF1FBA8EBB1C
:1003A000E09A81500DB2021639F01CBA2DBB0FB67F
:1003B000F894E29AE19A0FBE08950196272FECDF98
:1003C000EACFA82F862FE82FE199FECF1FBA05C0EC
:1003D000EEBBE09AE3950DB20D924150C8F7089537
:0403E000F894FFCFBF
:0203E400010016
:00000001FF
